{
  "contractName": "Calculator",
  "abi": [
    {
      "constant": true,
      "inputs": [
        {
          "internalType": "uint256",
          "name": "num1",
          "type": "uint256"
        },
        {
          "internalType": "uint256",
          "name": "num2",
          "type": "uint256"
        }
      ],
      "name": "arithmetics",
      "outputs": [
        {
          "internalType": "uint256",
          "name": "sum",
          "type": "uint256"
        },
        {
          "internalType": "uint256",
          "name": "product",
          "type": "uint256"
        }
      ],
      "payable": false,
      "stateMutability": "pure",
      "type": "function"
    },
    {
      "constant": true,
      "inputs": [
        {
          "internalType": "uint256",
          "name": "num1",
          "type": "uint256"
        },
        {
          "internalType": "uint256",
          "name": "num2",
          "type": "uint256"
        }
      ],
      "name": "multiply",
      "outputs": [
        {
          "internalType": "uint256",
          "name": "",
          "type": "uint256"
        }
      ],
      "payable": false,
      "stateMutability": "pure",
      "type": "function"
    }
  ],
  "bytecode": "0x608060405234801561001057600080fd5b50610126806100206000396000f3fe6080604052348015600f57600080fd5b506004361060325760003560e01c8063165c4a161460375780638c12d8f0146080575b600080fd5b606a60048036036040811015604b57600080fd5b81019080803590602001909291908035906020019092919050505060d0565b6040518082815260200191505060405180910390f35b60b360048036036040811015609457600080fd5b81019080803590602001909291908035906020019092919050505060dd565b604051808381526020018281526020019250505060405180910390f35b6000818302905092915050565b60008082840191508284029050925092905056fea265627a7a72315820a22a26ef0b5daf7e56e46ae81d8a1993cdc489899b3268cf8b8b830da6771adf64736f6c63430005100032",
  "source": "//SPDX-License-Identifier: GPL-3.0 \r\npragma solidity ^ 0.5.0;\r\n\r\ncontract Calculator {\r\n    function arithmetics(uint num1, uint num2) public pure returns(uint sum, uint product) {\r\n        sum = num1 + num2 ;\r\n        product = num1 * num2;\r\n    }\r\n\r\n    function multiply(uint num1, uint num2) public pure returns (uint) {\r\n        return num1*num2;\r\n    }\r\n}",
  "sourcePath": "C:/Users/JOZA/Desktop/Solidity Contracts/Calculator/contracts/Calculator.sol",
  "compiler": {
    "name": "solc",
    "version": "0.5.16+commit.9c3226ce.Emscripten.clang"
  },
  "schemaVersion": "3.3.2",
  "updatedAt": "2021-05-27T20:54:46.654Z",
  "networkType": "ethereum",
  "devdoc": {
    "methods": {}
  },
  "userdoc": {
    "methods": {}
  }
}